{
  "contractName": "Voting",
  "abi": [
    {
      "inputs": [
        {
          "internalType": "address",
          "name": "",
          "type": "address"
        }
      ],
      "name": "hasVoted",
      "outputs": [
        {
          "internalType": "bool",
          "name": "",
          "type": "bool"
        }
      ],
      "stateMutability": "view",
      "type": "function"
    },
    {
      "inputs": [
        {
          "internalType": "uint256",
          "name": "",
          "type": "uint256"
        }
      ],
      "name": "parties",
      "outputs": [
        {
          "internalType": "string",
          "name": "",
          "type": "string"
        }
      ],
      "stateMutability": "view",
      "type": "function"
    },
    {
      "inputs": [
        {
          "internalType": "string",
          "name": "party",
          "type": "string"
        }
      ],
      "name": "vote",
      "outputs": [],
      "stateMutability": "nonpayable",
      "type": "function"
    },
    {
      "inputs": [
        {
          "internalType": "string",
          "name": "party",
          "type": "string"
        }
      ],
      "name": "getVotes",
      "outputs": [
        {
          "internalType": "uint256",
          "name": "",
          "type": "uint256"
        }
      ],
      "stateMutability": "view",
      "type": "function"
    }
  ],
  "bytecode": "0x608060405260405180608001604052806040518060400160405280600c81526020017f4177616d69204c6561677565000000000000000000000000000000000000000081525081526020016040518060400160405280600c81526020017f4a6174697961205061727479000000000000000000000000000000000000000081525081526020016040518060400160405280601981526020017f42616e676c6164657368204e6174696f6e616c2050617274790000000000000081525081526020016040518060400160405280601781526020017f4a61746979612053616d616a74616e7472696b2044616c00000000000000000081525081525060029060046200010b92919062000120565b503480156200011957600080fd5b506200030a565b82805482825590600052602060002090810192821562000174579160200282015b82811115620001735782518290805190602001906200016292919062000187565b509160200191906001019062000141565b5b50905062000183919062000218565b5090565b8280546200019590620002a5565b90600052602060002090601f016020900481019282620001b9576000855562000205565b82601f10620001d457805160ff191683800117855562000205565b8280016001018555821562000205579182015b8281111562000204578251825591602001919060010190620001e7565b5b50905062000214919062000240565b5090565b5b808211156200023c57600081816200023291906200025f565b5060010162000219565b5090565b5b808211156200025b57600081600090555060010162000241565b5090565b5080546200026d90620002a5565b6000825580601f10620002815750620002a2565b601f016020900490600052602060002090810190620002a1919062000240565b5b50565b60006002820490506001821680620002be57607f821691505b60208210811415620002d557620002d4620002db565b5b50919050565b7f4e487b7100000000000000000000000000000000000000000000000000000000600052602260045260246000fd5b610a27806200031a6000396000f3fe608060405234801561001057600080fd5b506004361061004c5760003560e01c806309eef43e1461005157806370651a1814610081578063805265e5146100b1578063fc36e15b146100e1575b600080fd5b61006b600480360381019061006691906104a3565b6100fd565b60405161007891906106eb565b60405180910390f35b61009b6004803603810190610096919061050d565b61011d565b6040516100a89190610706565b60405180910390f35b6100cb60048036038101906100c691906104cc565b6101c9565b6040516100d89190610768565b60405180910390f35b6100fb60048036038101906100f691906104cc565b6101f0565b005b60016020528060005260406000206000915054906101000a900460ff1681565b6002818154811061012d57600080fd5b906000526020600020016000915090508054610148906108aa565b80601f0160208091040260200160405190810160405280929190818152602001828054610174906108aa565b80156101c15780601f10610196576101008083540402835291602001916101c1565b820191906000526020600020905b8154815290600101906020018083116101a457829003601f168201915b505050505081565b600080826040516101da91906106bd565b9081526020016040518091039020549050919050565b600160003373ffffffffffffffffffffffffffffffffffffffff1673ffffffffffffffffffffffffffffffffffffffff16815260200190815260200160002060009054906101000a900460ff161561027d576040517f08c379a000000000000000000000000000000000000000000000000000000000815260040161027490610728565b60405180910390fd5b6000805b6002805490508110156103cc578260405160200161029f91906106bd565b60405160208183030381529060405280519060200120600282815481106102ef577f4e487b7100000000000000000000000000000000000000000000000000000000600052603260045260246000fd5b9060005260206000200160405160200161030991906106d4565b6040516020818303038152906040528051906020012014156103b9576001915060008360405161033991906106bd565b90815260200160405180910390206000815480929190610358906108dc565b919050555060018060003373ffffffffffffffffffffffffffffffffffffffff1673ffffffffffffffffffffffffffffffffffffffff16815260200190815260200160002060006101000a81548160ff0219169083151502179055506103cc565b80806103c4906108dc565b915050610281565b508061040d576040517f08c379a000000000000000000000000000000000000000000000000000000000815260040161040490610748565b60405180910390fd5b5050565b600061042461041f846107b4565b610783565b90508281526020810184848401111561043c57600080fd5b610447848285610868565b509392505050565b60008135905061045e816109c3565b92915050565b600082601f83011261047557600080fd5b8135610485848260208601610411565b91505092915050565b60008135905061049d816109da565b92915050565b6000602082840312156104b557600080fd5b60006104c38482850161044f565b91505092915050565b6000602082840312156104de57600080fd5b600082013567ffffffffffffffff8111156104f857600080fd5b61050484828501610464565b91505092915050565b60006020828403121561051f57600080fd5b600061052d8482850161048e565b91505092915050565b61053f81610832565b82525050565b6000610550826107f9565b61055a8185610804565b935061056a818560208601610877565b610573816109b2565b840191505092915050565b6000610589826107f9565b6105938185610815565b93506105a3818560208601610877565b80840191505092915050565b600081546105bc816108aa565b6105c68186610815565b945060018216600081146105e157600181146105f257610625565b60ff19831686528186019350610625565b6105fb856107e4565b60005b8381101561061d578154818901526001820191506020810190506105fe565b838801955050505b50505092915050565b600061063b601783610804565b91507f596f75206861766520616c726561647920766f7465642e0000000000000000006000830152602082019050919050565b600061067b600e83610804565b91507f496e76616c69642070617274792e0000000000000000000000000000000000006000830152602082019050919050565b6106b78161085e565b82525050565b60006106c9828461057e565b915081905092915050565b60006106e082846105af565b915081905092915050565b60006020820190506107006000830184610536565b92915050565b600060208201905081810360008301526107208184610545565b905092915050565b600060208201905081810360008301526107418161062e565b9050919050565b600060208201905081810360008301526107618161066e565b9050919050565b600060208201905061077d60008301846106ae565b92915050565b6000604051905081810181811067ffffffffffffffff821117156107aa576107a9610983565b5b8060405250919050565b600067ffffffffffffffff8211156107cf576107ce610983565b5b601f19601f8301169050602081019050919050565b60008190508160005260206000209050919050565b600081519050919050565b600082825260208201905092915050565b600081905092915050565b600061082b8261083e565b9050919050565b60008115159050919050565b600073ffffffffffffffffffffffffffffffffffffffff82169050919050565b6000819050919050565b82818337600083830152505050565b60005b8381101561089557808201518184015260208101905061087a565b838111156108a4576000848401525b50505050565b600060028204905060018216806108c257607f821691505b602082108114156108d6576108d5610954565b5b50919050565b60006108e78261085e565b91507fffffffffffffffffffffffffffffffffffffffffffffffffffffffffffffffff82141561091a57610919610925565b5b600182019050919050565b7f4e487b7100000000000000000000000000000000000000000000000000000000600052601160045260246000fd5b7f4e487b7100000000000000000000000000000000000000000000000000000000600052602260045260246000fd5b7f4e487b7100000000000000000000000000000000000000000000000000000000600052604160045260246000fd5b6000601f19601f8301169050919050565b6109cc81610820565b81146109d757600080fd5b50565b6109e38161085e565b81146109ee57600080fd5b5056fea264697066735822122079fb380a43fa2fcb92e57ce6c675a9bee179aac5118de96c1f098f83dd5e677a64736f6c63430008000033",
  "immutableReferences": {},
  "source": "// SPDX-License-Identifier: MIT\npragma solidity ^0.8.0;\n\n/**\n * @title Voting\n * @dev Smart contract for decentralized voting system.\n */\n\ncontract Voting {\n    // Mapping to store votes for each party\n    mapping(string => uint256) private votes;\n\n    // Mapping to track whether an address has voted\n    mapping(address => bool) public hasVoted;\n\n    // Array of party names\n    string[] public parties = [\"Awami League\", \"Jatiya Party\", \"Bangladesh National Party\", \"Jatiya Samajtantrik Dal\"];\n\n    /**\n     * @dev Vote for a party.\n     * @param party The name of the party to vote for.\n     */\n    function vote(string memory party) public {\n        require(!hasVoted[msg.sender], \"You have already voted.\");\n        bool validParty = false;\n\n        // Validate the party name\n        for (uint256 i = 0; i < parties.length; i++) {\n            if (keccak256(abi.encodePacked(parties[i])) == keccak256(abi.encodePacked(party))) {\n                validParty = true;\n                votes[party]++;\n                hasVoted[msg.sender] = true;\n                break;\n            }\n        }\n\n        require(validParty, \"Invalid party.\");\n    }\n\n    /**\n     * @dev Get the number of votes for a party.\n     * @param party The name of the party.\n     * @return The number of votes received by the party.\n     */\n    function getVotes(string memory party) public view returns (uint256) {\n        return votes[party];\n    }\n}\n",
  "sourcePath": "/home/moinul/Documents/Blockchain Projects/telegram-bot/contracts/Voting.sol",
  "compiler": {
    "name": "solc",
    "version": "0.8.0+commit.c7dfd78e.Emscripten.clang"
  },
  "schemaVersion": "3.4.16",
  "updatedAt": "2024-06-13T11:50:01.634Z",
  "devdoc": {
    "details": "Smart contract for decentralized voting system.",
    "kind": "dev",
    "methods": {
      "getVotes(string)": {
        "details": "Get the number of votes for a party.",
        "params": {
          "party": "The name of the party."
        },
        "returns": {
          "_0": "The number of votes received by the party."
        }
      },
      "vote(string)": {
        "details": "Vote for a party.",
        "params": {
          "party": "The name of the party to vote for."
        }
      }
    },
    "title": "Voting",
    "version": 1
  },
  "userdoc": {
    "kind": "user",
    "methods": {},
    "version": 1
  }
}