{
  "contractName": "Voting",
  "abi": [
    {
      "inputs": [
        {
          "internalType": "address",
          "name": "",
          "type": "address"
        }
      ],
      "name": "hasVoted",
      "outputs": [
        {
          "internalType": "bool",
          "name": "",
          "type": "bool"
        }
      ],
      "stateMutability": "view",
      "type": "function",
      "constant": true
    },
    {
      "inputs": [
        {
          "internalType": "uint256",
          "name": "",
          "type": "uint256"
        }
      ],
      "name": "parties",
      "outputs": [
        {
          "internalType": "string",
          "name": "",
          "type": "string"
        }
      ],
      "stateMutability": "view",
      "type": "function",
      "constant": true
    },
    {
      "inputs": [
        {
          "internalType": "string",
          "name": "party",
          "type": "string"
        }
      ],
      "name": "vote",
      "outputs": [],
      "stateMutability": "nonpayable",
      "type": "function"
    },
    {
      "inputs": [
        {
          "internalType": "string",
          "name": "party",
          "type": "string"
        }
      ],
      "name": "getVotes",
      "outputs": [
        {
          "internalType": "uint256",
          "name": "",
          "type": "uint256"
        }
      ],
      "stateMutability": "view",
      "type": "function",
      "constant": true
    },
    {
      "inputs": [],
      "name": "getAllVotes",
      "outputs": [
        {
          "internalType": "string[]",
          "name": "",
          "type": "string[]"
        },
        {
          "internalType": "uint256[]",
          "name": "",
          "type": "uint256[]"
        }
      ],
      "stateMutability": "view",
      "type": "function",
      "constant": true
    },
    {
      "inputs": [],
      "name": "getWinner",
      "outputs": [
        {
          "internalType": "string",
          "name": "",
          "type": "string"
        },
        {
          "internalType": "uint256",
          "name": "",
          "type": "uint256"
        }
      ],
      "stateMutability": "view",
      "type": "function",
      "constant": true
    }
  ],
  "bytecode": "0x608060405260405180608001604052806040518060400160405280600c81526020017f4177616d69204c6561677565000000000000000000000000000000000000000081525081526020016040518060400160405280600c81526020017f4a6174697961205061727479000000000000000000000000000000000000000081525081526020016040518060400160405280601981526020017f42616e676c6164657368204e6174696f6e616c2050617274790000000000000081525081526020016040518060400160405280601781526020017f4a61746979612053616d616a74616e7472696b2044616c00000000000000000081525081525060029060046200010b92919062000120565b503480156200011957600080fd5b506200030a565b82805482825590600052602060002090810192821562000174579160200282015b82811115620001735782518290805190602001906200016292919062000187565b509160200191906001019062000141565b5b50905062000183919062000218565b5090565b8280546200019590620002a5565b90600052602060002090601f016020900481019282620001b9576000855562000205565b82601f10620001d457805160ff191683800117855562000205565b8280016001018555821562000205579182015b8281111562000204578251825591602001919060010190620001e7565b5b50905062000214919062000240565b5090565b5b808211156200023c57600081816200023291906200025f565b5060010162000219565b5090565b5b808211156200025b57600081600090555060010162000241565b5090565b5080546200026d90620002a5565b6000825580601f10620002815750620002a2565b601f016020900490600052602060002090810190620002a1919062000240565b5b50565b60006002820490506001821680620002be57607f821691505b60208210811415620002d557620002d4620002db565b5b50919050565b7f4e487b7100000000000000000000000000000000000000000000000000000000600052602260045260246000fd5b61105a806200031a6000396000f3fe608060405234801561001057600080fd5b50600436106100625760003560e01c806309eef43e1461006757806370651a1814610097578063805265e5146100c7578063851b6ef2146100f75780638e7ea5b214610116578063fc36e15b14610135575b600080fd5b610081600480360381019061007c91906108a5565b610151565b60405161008e9190610c6b565b60405180910390f35b6100b160048036038101906100ac919061090f565b610171565b6040516100be9190610c86565b60405180910390f35b6100e160048036038101906100dc91906108ce565b61021d565b6040516100ee9190610d18565b60405180910390f35b6100ff610244565b60405161010d929190610c34565b60405180910390f35b61011e610469565b60405161012c929190610ca8565b60405180910390f35b61014f600480360381019061014a91906108ce565b6105f2565b005b60016020528060005260406000206000915054906101000a900460ff1681565b6002818154811061018157600080fd5b90600052602060002001600091509050805461019c90610edd565b80601f01602080910402602001604051908101604052809291908181526020018280546101c890610edd565b80156102155780601f106101ea57610100808354040283529160200191610215565b820191906000526020600020905b8154815290600101906020018083116101f857829003601f168201915b505050505081565b6000808260405161022e9190610c06565b9081526020016040518091039020549050919050565b606080600060028054905067ffffffffffffffff81111561028e577f4e487b7100000000000000000000000000000000000000000000000000000000600052604160045260246000fd5b6040519080825280602002602001820160405280156102bc5781602001602082028036833780820191505090505b50905060005b6002805490508110156103895760006002828154811061030b577f4e487b7100000000000000000000000000000000000000000000000000000000600052603260045260246000fd5b906000526020600020016040516103229190610c1d565b90815260200160405180910390205482828151811061036a577f4e487b7100000000000000000000000000000000000000000000000000000000600052603260045260246000fd5b602002602001018181525050808061038190610f0f565b9150506102c2565b5060028181805480602002602001604051908101604052809291908181526020016000905b8282101561045a5783829060005260206000200180546103cd90610edd565b80601f01602080910402602001604051908101604052809291908181526020018280546103f990610edd565b80156104465780601f1061041b57610100808354040283529160200191610446565b820191906000526020600020905b81548152906001019060200180831161042957829003601f168201915b5050505050815260200190600101906103ae565b50505050915092509250509091565b60606000806040518060200160405280600081525090506000805b6002805490508110156105e557600080600283815481106104ce577f4e487b7100000000000000000000000000000000000000000000000000000000600052603260045260246000fd5b906000526020600020016040516104e59190610c1d565b9081526020016040518091039020549050828111156105d1578092506002828154811061053b577f4e487b7100000000000000000000000000000000000000000000000000000000600052603260045260246000fd5b90600052602060002001805461055090610edd565b80601f016020809104026020016040519081016040528092919081815260200182805461057c90610edd565b80156105c95780601f1061059e576101008083540402835291602001916105c9565b820191906000526020600020905b8154815290600101906020018083116105ac57829003601f168201915b505050505093505b5080806105dd90610f0f565b915050610484565b5081819350935050509091565b600160003373ffffffffffffffffffffffffffffffffffffffff1673ffffffffffffffffffffffffffffffffffffffff16815260200190815260200160002060009054906101000a900460ff161561067f576040517f08c379a000000000000000000000000000000000000000000000000000000000815260040161067690610cd8565b60405180910390fd5b6000805b6002805490508110156107ce57826040516020016106a19190610c06565b60405160208183030381529060405280519060200120600282815481106106f1577f4e487b7100000000000000000000000000000000000000000000000000000000600052603260045260246000fd5b9060005260206000200160405160200161070b9190610c1d565b6040516020818303038152906040528051906020012014156107bb576001915060008360405161073b9190610c06565b9081526020016040518091039020600081548092919061075a90610f0f565b919050555060018060003373ffffffffffffffffffffffffffffffffffffffff1673ffffffffffffffffffffffffffffffffffffffff16815260200190815260200160002060006101000a81548160ff0219169083151502179055506107ce565b80806107c690610f0f565b915050610683565b508061080f576040517f08c379a000000000000000000000000000000000000000000000000000000000815260040161080690610cf8565b60405180910390fd5b5050565b600061082661082184610d64565b610d33565b90508281526020810184848401111561083e57600080fd5b610849848285610e9b565b509392505050565b60008135905061086081610ff6565b92915050565b600082601f83011261087757600080fd5b8135610887848260208601610813565b91505092915050565b60008135905061089f8161100d565b92915050565b6000602082840312156108b757600080fd5b60006108c584828501610851565b91505092915050565b6000602082840312156108e057600080fd5b600082013567ffffffffffffffff8111156108fa57600080fd5b61090684828501610866565b91505092915050565b60006020828403121561092157600080fd5b600061092f84828501610890565b91505092915050565b60006109448383610a46565b905092915050565b60006109588383610be8565b60208301905092915050565b600061096f82610dc9565b6109798185610e04565b93508360208202850161098b85610d94565b8060005b858110156109c757848403895281516109a88582610938565b94506109b383610dea565b925060208a0199505060018101905061098f565b50829750879550505050505092915050565b60006109e482610dd4565b6109ee8185610e15565b93506109f983610da4565b8060005b83811015610a2a578151610a11888261094c565b9750610a1c83610df7565b9250506001810190506109fd565b5085935050505092915050565b610a4081610e65565b82525050565b6000610a5182610ddf565b610a5b8185610e26565b9350610a6b818560208601610eaa565b610a7481610fe5565b840191505092915050565b6000610a8a82610ddf565b610a948185610e37565b9350610aa4818560208601610eaa565b610aad81610fe5565b840191505092915050565b6000610ac382610ddf565b610acd8185610e48565b9350610add818560208601610eaa565b80840191505092915050565b60008154610af681610edd565b610b008186610e48565b94506001821660008114610b1b5760018114610b2c57610b5f565b60ff19831686528186019350610b5f565b610b3585610db4565b60005b83811015610b5757815481890152600182019150602081019050610b38565b838801955050505b50505092915050565b6000610b75601783610e37565b91507f596f75206861766520616c726561647920766f7465642e0000000000000000006000830152602082019050919050565b6000610bb5600e83610e37565b91507f496e76616c69642070617274792e0000000000000000000000000000000000006000830152602082019050919050565b610bf181610e91565b82525050565b610c0081610e91565b82525050565b6000610c128284610ab8565b915081905092915050565b6000610c298284610ae9565b915081905092915050565b60006040820190508181036000830152610c4e8185610964565b90508181036020830152610c6281846109d9565b90509392505050565b6000602082019050610c806000830184610a37565b92915050565b60006020820190508181036000830152610ca08184610a7f565b905092915050565b60006040820190508181036000830152610cc28185610a7f565b9050610cd16020830184610bf7565b9392505050565b60006020820190508181036000830152610cf181610b68565b9050919050565b60006020820190508181036000830152610d1181610ba8565b9050919050565b6000602082019050610d2d6000830184610bf7565b92915050565b6000604051905081810181811067ffffffffffffffff82111715610d5a57610d59610fb6565b5b8060405250919050565b600067ffffffffffffffff821115610d7f57610d7e610fb6565b5b601f19601f8301169050602081019050919050565b6000819050602082019050919050565b6000819050602082019050919050565b60008190508160005260206000209050919050565b600081519050919050565b600081519050919050565b600081519050919050565b6000602082019050919050565b6000602082019050919050565b600082825260208201905092915050565b600082825260208201905092915050565b600082825260208201905092915050565b600082825260208201905092915050565b600081905092915050565b6000610e5e82610e71565b9050919050565b60008115159050919050565b600073ffffffffffffffffffffffffffffffffffffffff82169050919050565b6000819050919050565b82818337600083830152505050565b60005b83811015610ec8578082015181840152602081019050610ead565b83811115610ed7576000848401525b50505050565b60006002820490506001821680610ef557607f821691505b60208210811415610f0957610f08610f87565b5b50919050565b6000610f1a82610e91565b91507fffffffffffffffffffffffffffffffffffffffffffffffffffffffffffffffff821415610f4d57610f4c610f58565b5b600182019050919050565b7f4e487b7100000000000000000000000000000000000000000000000000000000600052601160045260246000fd5b7f4e487b7100000000000000000000000000000000000000000000000000000000600052602260045260246000fd5b7f4e487b7100000000000000000000000000000000000000000000000000000000600052604160045260246000fd5b6000601f19601f8301169050919050565b610fff81610e53565b811461100a57600080fd5b50565b61101681610e91565b811461102157600080fd5b5056fea2646970667358221220343a1a5cb1cec59419891e39340d8ca1684eb89083f7d37f434e30dc4a24258764736f6c63430008000033",
  "immutableReferences": {},
  "source": "// SPDX-License-Identifier: MIT\npragma solidity ^0.8.0;\n\n/**\n * @title Voting\n * @dev Smart contract for decentralized voting system.\n */\n\ncontract Voting {\n    // Mapping to store votes for each party\n    mapping(string => uint256) private votes;\n\n    // Mapping to track whether an address has voted\n    mapping(address => bool) public hasVoted;\n\n    // Array of party names\n    string[] public parties = [\"Awami League\", \"Jatiya Party\", \"Bangladesh National Party\", \"Jatiya Samajtantrik Dal\"];\n\n    /**\n     * @dev Vote for a party.\n     * @param party The name of the party to vote for.\n     */\n    function vote(string memory party) public {\n        require(!hasVoted[msg.sender], \"You have already voted.\");\n        bool validParty = false;\n\n        // Validate the party name\n        for (uint256 i = 0; i < parties.length; i++) {\n            if (keccak256(abi.encodePacked(parties[i])) == keccak256(abi.encodePacked(party))) {\n                validParty = true;\n                votes[party]++;\n                hasVoted[msg.sender] = true;\n                break;\n            }\n        }\n\n        require(validParty, \"Invalid party.\");\n    }\n\n    /**\n     * @dev Get the number of votes for a party.\n     * @param party The name of the party.\n     * @return The number of votes received by the party.\n     */\n    function getVotes(string memory party) public view returns (uint256) {\n        return votes[party];\n    }\n\n    /**\n     * @dev Get all parties and their votes.\n     * @return An array of party names and an array of votes.\n     */\n    function getAllVotes() public view returns (string[] memory, uint256[] memory) {\n        uint256[] memory voteCounts = new uint256[](parties.length);\n        for (uint256 i = 0; i < parties.length; i++) {\n            voteCounts[i] = votes[parties[i]];\n        }\n        return (parties, voteCounts);\n    }\n\n     /**\n     * @dev Get winner\n     * @return A string of the winner\n     */\n\n    function getWinner() public view returns (string memory, uint256) {\n    string memory winner = \"\";\n    uint256 maxVotes = 0;\n\n    for (uint256 i = 0; i < parties.length; i++) {\n        uint256 partyVotes = votes[parties[i]];\n        if (partyVotes > maxVotes) {\n            maxVotes = partyVotes;\n            winner = parties[i];\n        }\n    }\n\n    return (winner, maxVotes);\n}\n}\n",
  "sourcePath": "/home/moinul/Documents/Blockchain Projects/Blockchain-Voting-System-with-Telegram-Bot/contracts/Voting.sol",
  "compiler": {
    "name": "solc",
    "version": "0.8.0+commit.c7dfd78e.Emscripten.clang"
  },
  "schemaVersion": "3.4.16",
  "updatedAt": "2024-06-20T10:58:25.292Z",
  "networkType": "ethereum",
  "devdoc": {
    "details": "Smart contract for decentralized voting system.",
    "kind": "dev",
    "methods": {
      "getAllVotes()": {
        "details": "Get all parties and their votes.",
        "returns": {
          "_0": "An array of party names and an array of votes."
        }
      },
      "getVotes(string)": {
        "details": "Get the number of votes for a party.",
        "params": {
          "party": "The name of the party."
        },
        "returns": {
          "_0": "The number of votes received by the party."
        }
      },
      "getWinner()": {
        "details": "Get winner",
        "returns": {
          "_0": "A string of the winner"
        }
      },
      "vote(string)": {
        "details": "Vote for a party.",
        "params": {
          "party": "The name of the party to vote for."
        }
      }
    },
    "title": "Voting",
    "version": 1
  },
  "userdoc": {
    "kind": "user",
    "methods": {},
    "version": 1
  }
}